{
  "contractName": "Election",
  "abi": [
    {
      "inputs": [
        {
          "internalType": "string",
          "name": "_name",
          "type": "string"
        },
        {
          "internalType": "string",
          "name": "_description",
          "type": "string"
        }
      ],
      "stateMutability": "nonpayable",
      "type": "constructor"
    },
    {
      "inputs": [
        {
          "internalType": "uint256",
          "name": "",
          "type": "uint256"
        }
      ],
      "name": "deployedBallots",
      "outputs": [
        {
          "internalType": "address",
          "name": "",
          "type": "address"
        }
      ],
      "stateMutability": "view",
      "type": "function",
      "constant": true
    },
    {
      "inputs": [],
      "name": "description",
      "outputs": [
        {
          "internalType": "string",
          "name": "",
          "type": "string"
        }
      ],
      "stateMutability": "view",
      "type": "function",
      "constant": true
    },
    {
      "inputs": [],
      "name": "name",
      "outputs": [
        {
          "internalType": "string",
          "name": "",
          "type": "string"
        }
      ],
      "stateMutability": "view",
      "type": "function",
      "constant": true
    },
    {
      "inputs": [
        {
          "internalType": "string[]",
          "name": "names",
          "type": "string[]"
        },
        {
          "internalType": "string[]",
          "name": "descriptions",
          "type": "string[]"
        },
        {
          "internalType": "string[][]",
          "name": "candidates",
          "type": "string[][]"
        },
        {
          "internalType": "string[][]",
          "name": "partys",
          "type": "string[][]"
        },
        {
          "internalType": "uint256[][]",
          "name": "numbers",
          "type": "uint256[][]"
        },
        {
          "internalType": "string[][]",
          "name": "images",
          "type": "string[][]"
        },
        {
          "internalType": "string[]",
          "name": "districts",
          "type": "string[]"
        },
        {
          "internalType": "uint256",
          "name": "startDate",
          "type": "uint256"
        },
        {
          "internalType": "uint256",
          "name": "endDate",
          "type": "uint256"
        },
        {
          "internalType": "address[][]",
          "name": "_voters",
          "type": "address[][]"
        }
      ],
      "name": "startElection",
      "outputs": [],
      "stateMutability": "nonpayable",
      "type": "function"
    },
    {
      "inputs": [],
      "name": "getDeployedBallots",
      "outputs": [
        {
          "internalType": "address[]",
          "name": "",
          "type": "address[]"
        }
      ],
      "stateMutability": "view",
      "type": "function",
      "constant": true
    }
  ],
  "bytecode": "0x60806040523480156200001157600080fd5b5060405162005032380380620050328339818101604052810190620000379190620002be565b81600190805190602001906200004f92919062000071565b5080600290805190602001906200006892919062000071565b505050620003a7565b8280546200007f9062000372565b90600052602060002090601f016020900481019282620000a35760008555620000ef565b82601f10620000be57805160ff1916838001178555620000ef565b82800160010185558215620000ef579182015b82811115620000ee578251825591602001919060010190620000d1565b5b509050620000fe919062000102565b5090565b5b808211156200011d57600081600090555060010162000103565b5090565b6000604051905090565b600080fd5b600080fd5b600080fd5b600080fd5b6000601f19601f8301169050919050565b7f4e487b7100000000000000000000000000000000000000000000000000000000600052604160045260246000fd5b6200018a826200013f565b810181811067ffffffffffffffff82111715620001ac57620001ab62000150565b5b80604052505050565b6000620001c162000121565b9050620001cf82826200017f565b919050565b600067ffffffffffffffff821115620001f257620001f162000150565b5b620001fd826200013f565b9050602081019050919050565b60005b838110156200022a5780820151818401526020810190506200020d565b838111156200023a576000848401525b50505050565b6000620002576200025184620001d4565b620001b5565b9050828152602081018484840111156200027657620002756200013a565b5b620002838482856200020a565b509392505050565b600082601f830112620002a357620002a262000135565b5b8151620002b584826020860162000240565b91505092915050565b60008060408385031215620002d857620002d76200012b565b5b600083015167ffffffffffffffff811115620002f957620002f862000130565b5b62000307858286016200028b565b925050602083015167ffffffffffffffff8111156200032b576200032a62000130565b5b62000339858286016200028b565b9150509250929050565b7f4e487b7100000000000000000000000000000000000000000000000000000000600052602260045260246000fd5b600060028204905060018216806200038b57607f821691505b602082108103620003a157620003a062000343565b5b50919050565b614c7b80620003b76000396000f3fe60806040523480156200001157600080fd5b50600436106200005e5760003560e01c806306fdde0314620000635780637284e41614620000855780639b935abf14620000a7578063c7785e1b14620000c9578063cdf74c3e14620000e9575b600080fd5b6200006d6200011f565b6040516200007c91906200059a565b60405180910390f35b6200008f620001b5565b6040516200009e91906200059a565b60405180910390f35b620000b16200024b565b604051620000c09190620006c0565b60405180910390f35b620000e76004803603810190620000e1919062000e42565b620002db565b005b62000107600480360381019062000101919062001030565b620004a8565b60405162000116919062001073565b60405180910390f35b600180546200012e90620010bf565b80601f01602080910402602001604051908101604052809291908181526020018280546200015c90620010bf565b8015620001ad5780601f106200018157610100808354040283529160200191620001ad565b820191906000526020600020905b8154815290600101906020018083116200018f57829003601f168201915b505050505081565b60028054620001c490620010bf565b80601f0160208091040260200160405190810160405280929190818152602001828054620001f290620010bf565b8015620002435780601f10620002175761010080835404028352916020019162000243565b820191906000526020600020905b8154815290600101906020018083116200022557829003601f168201915b505050505081565b60606000805480602002602001604051908101604052809291908181526020018280548015620002d157602002820191906000526020600020905b8160009054906101000a900473ffffffffffffffffffffffffffffffffffffffff1673ffffffffffffffffffffffffffffffffffffffff168152602001906001019080831162000286575b5050505050905090565b60005b84518110156200049b5760008b82815181106200030057620002ff620010f4565b5b60200260200101518b83815181106200031e576200031d620010f4565b5b60200260200101518b84815181106200033c576200033b620010f4565b5b60200260200101518b85815181106200035a5762000359620010f4565b5b60200260200101518b8681518110620003785762000377620010f4565b5b60200260200101518b8781518110620003965762000395620010f4565b5b60200260200101518b8881518110620003b457620003b3620010f4565b5b6020026020010151338c8c8c8c81518110620003d557620003d4620010f4565b5b6020026020010151604051620003eb90620004e8565b620004019b9a9998979695949392919062001324565b604051809103906000f0801580156200041e573d6000803e3d6000fd5b5090506000819080600181540180825580915050600190039060005260206000200160009091909190916101000a81548173ffffffffffffffffffffffffffffffffffffffff021916908373ffffffffffffffffffffffffffffffffffffffff16021790555050808062000492906200144c565b915050620002de565b5050505050505050505050565b60008181548110620004b957600080fd5b906000526020600020016000915054906101000a900473ffffffffffffffffffffffffffffffffffffffff1681565b6137ac806200149a83390190565b600081519050919050565b600082825260208201905092915050565b60005b838110156200053257808201518184015260208101905062000515565b8381111562000542576000848401525b50505050565b6000601f19601f8301169050919050565b60006200056682620004f6565b62000572818562000501565b93506200058481856020860162000512565b6200058f8162000548565b840191505092915050565b60006020820190508181036000830152620005b6818462000559565b905092915050565b600081519050919050565b600082825260208201905092915050565b6000819050602082019050919050565b600073ffffffffffffffffffffffffffffffffffffffff82169050919050565b60006200061782620005ea565b9050919050565b62000629816200060a565b82525050565b60006200063d83836200061e565b60208301905092915050565b6000602082019050919050565b60006200066382620005be565b6200066f8185620005c9565b93506200067c83620005da565b8060005b83811015620006b35781516200069788826200062f565b9750620006a48362000649565b92505060018101905062000680565b5085935050505092915050565b60006020820190508181036000830152620006dc818462000656565b905092915050565b6000604051905090565b600080fd5b600080fd5b600080fd5b7f4e487b7100000000000000000000000000000000000000000000000000000000600052604160045260246000fd5b620007378262000548565b810181811067ffffffffffffffff82111715620007595762000758620006fd565b5b80604052505050565b60006200076e620006e4565b90506200077c82826200072c565b919050565b600067ffffffffffffffff8211156200079f576200079e620006fd565b5b602082029050602081019050919050565b600080fd5b600080fd5b600067ffffffffffffffff821115620007d857620007d7620006fd565b5b620007e38262000548565b9050602081019050919050565b82818337600083830152505050565b6000620008166200081084620007ba565b62000762565b905082815260208101848484011115620008355762000834620007b5565b5b62000842848285620007f0565b509392505050565b600082601f830112620008625762000861620006f8565b5b813562000874848260208601620007ff565b91505092915050565b6000620008946200088e8462000781565b62000762565b90508083825260208201905060208402830185811115620008ba57620008b9620007b0565b5b835b818110156200090857803567ffffffffffffffff811115620008e357620008e2620006f8565b5b808601620008f289826200084a565b85526020850194505050602081019050620008bc565b5050509392505050565b600082601f8301126200092a5762000929620006f8565b5b81356200093c8482602086016200087d565b91505092915050565b600067ffffffffffffffff821115620009635762000962620006fd565b5b602082029050602081019050919050565b60006200098b620009858462000945565b62000762565b90508083825260208201905060208402830185811115620009b157620009b0620007b0565b5b835b81811015620009ff57803567ffffffffffffffff811115620009da57620009d9620006f8565b5b808601620009e9898262000912565b85526020850194505050602081019050620009b3565b5050509392505050565b600082601f83011262000a215762000a20620006f8565b5b813562000a3384826020860162000974565b91505092915050565b600067ffffffffffffffff82111562000a5a5762000a59620006fd565b5b602082029050602081019050919050565b600067ffffffffffffffff82111562000a895762000a88620006fd565b5b602082029050602081019050919050565b6000819050919050565b62000aaf8162000a9a565b811462000abb57600080fd5b50565b60008135905062000acf8162000aa4565b92915050565b600062000aec62000ae68462000a6b565b62000762565b9050808382526020820190506020840283018581111562000b125762000b11620007b0565b5b835b8181101562000b3f578062000b2a888262000abe565b84526020840193505060208101905062000b14565b5050509392505050565b600082601f83011262000b615762000b60620006f8565b5b813562000b7384826020860162000ad5565b91505092915050565b600062000b9362000b8d8462000a3c565b62000762565b9050808382526020820190506020840283018581111562000bb95762000bb8620007b0565b5b835b8181101562000c0757803567ffffffffffffffff81111562000be25762000be1620006f8565b5b80860162000bf1898262000b49565b8552602085019450505060208101905062000bbb565b5050509392505050565b600082601f83011262000c295762000c28620006f8565b5b813562000c3b84826020860162000b7c565b91505092915050565b600067ffffffffffffffff82111562000c625762000c61620006fd565b5b602082029050602081019050919050565b600067ffffffffffffffff82111562000c915762000c90620006fd565b5b602082029050602081019050919050565b62000cad816200060a565b811462000cb957600080fd5b50565b60008135905062000ccd8162000ca2565b92915050565b600062000cea62000ce48462000c73565b62000762565b9050808382526020820190506020840283018581111562000d105762000d0f620007b0565b5b835b8181101562000d3d578062000d28888262000cbc565b84526020840193505060208101905062000d12565b5050509392505050565b600082601f83011262000d5f5762000d5e620006f8565b5b813562000d7184826020860162000cd3565b91505092915050565b600062000d9162000d8b8462000c44565b62000762565b9050808382526020820190506020840283018581111562000db75762000db6620007b0565b5b835b8181101562000e0557803567ffffffffffffffff81111562000de05762000ddf620006f8565b5b80860162000def898262000d47565b8552602085019450505060208101905062000db9565b5050509392505050565b600082601f83011262000e275762000e26620006f8565b5b813562000e3984826020860162000d7a565b91505092915050565b6000806000806000806000806000806101408b8d03121562000e695762000e68620006ee565b5b60008b013567ffffffffffffffff81111562000e8a5762000e89620006f3565b5b62000e988d828e0162000912565b9a505060208b013567ffffffffffffffff81111562000ebc5762000ebb620006f3565b5b62000eca8d828e0162000912565b99505060408b013567ffffffffffffffff81111562000eee5762000eed620006f3565b5b62000efc8d828e0162000a09565b98505060608b013567ffffffffffffffff81111562000f205762000f1f620006f3565b5b62000f2e8d828e0162000a09565b97505060808b013567ffffffffffffffff81111562000f525762000f51620006f3565b5b62000f608d828e0162000c11565b96505060a08b013567ffffffffffffffff81111562000f845762000f83620006f3565b5b62000f928d828e0162000a09565b95505060c08b013567ffffffffffffffff81111562000fb65762000fb5620006f3565b5b62000fc48d828e0162000912565b94505060e062000fd78d828e0162000abe565b93505061010062000feb8d828e0162000abe565b9250506101208b013567ffffffffffffffff81111562001010576200100f620006f3565b5b6200101e8d828e0162000e0f565b9150509295989b9194979a5092959850565b600060208284031215620010495762001048620006ee565b5b6000620010598482850162000abe565b91505092915050565b6200106d816200060a565b82525050565b60006020820190506200108a600083018462001062565b92915050565b7f4e487b7100000000000000000000000000000000000000000000000000000000600052602260045260246000fd5b60006002820490506001821680620010d857607f821691505b602082108103620010ee57620010ed62001090565b5b50919050565b7f4e487b7100000000000000000000000000000000000000000000000000000000600052603260045260246000fd5b600081519050919050565b600082825260208201905092915050565b6000819050602082019050919050565b600082825260208201905092915050565b60006200116d82620004f6565b6200117981856200114f565b93506200118b81856020860162000512565b620011968162000548565b840191505092915050565b6000620011af838362001160565b905092915050565b6000602082019050919050565b6000620011d18262001123565b620011dd81856200112e565b935083602082028501620011f1856200113f565b8060005b85811015620012335784840389528151620012118582620011a1565b94506200121e83620011b7565b925060208a01995050600181019050620011f5565b50829750879550505050505092915050565b600081519050919050565b600082825260208201905092915050565b6000819050602082019050919050565b6200127c8162000a9a565b82525050565b600062001290838362001271565b60208301905092915050565b6000602082019050919050565b6000620012b68262001245565b620012c2818562001250565b9350620012cf8362001261565b8060005b8381101562001306578151620012ea888262001282565b9750620012f7836200129c565b925050600181019050620012d3565b5085935050505092915050565b6200131e8162000a9a565b82525050565b600061016082019050818103600083015262001341818e62000559565b9050818103602083015262001357818d62000559565b905081810360408301526200136d818c620011c4565b9050818103606083015262001383818b620011c4565b9050818103608083015262001399818a620012a9565b905081810360a0830152620013af8189620011c4565b905081810360c0830152620013c5818862000559565b9050620013d660e083018762001062565b620013e661010083018662001313565b620013f661012083018562001313565b8181036101408301526200140b818462000656565b90509c9b505050505050505050505050565b7f4e487b7100000000000000000000000000000000000000000000000000000000600052601160045260246000fd5b6000620014598262000a9a565b91507fffffffffffffffffffffffffffffffffffffffffffffffffffffffffffffffff82036200148e576200148d6200141d565b5b60018201905091905056fe60806040523480156200001157600080fd5b50604051620037ac380380620037ac833981810160405281019062000037919062000a68565b83600660006101000a81548173ffffffffffffffffffffffffffffffffffffffff021916908373ffffffffffffffffffffffffffffffffffffffff160217905550846007908051906020019062000090929190620004d3565b5082600281905550816003819055508a60009080519060200190620000b7929190620004d3565b508960019080519060200190620000d0929190620004d3565b50620000e281620003a460201b60201c565b60005b8951811015620003925760046040518060c0016040528060048054905081526020018c84815181106200011d576200011c62000c6d565b5b602002602001015181526020018b848151811062000140576200013f62000c6d565b5b602002602001015181526020018a848151811062000163576200016262000c6d565b5b6020026020010151815260200189848151811062000186576200018562000c6d565b5b6020026020010151815260200160008152509080600181540180825580915050600190039060005260206000209060060201600090919091909150600082015181600001556020820151816001019080519060200190620001e9929190620004d3565b50604082015181600201908051906020019062000208929190620004d3565b5060608201518160030155608082015181600401908051906020019062000231929190620004d3565b5060a08201518160050155505060056040518060a0016040528060058054905081526020018c84815181106200026c576200026b62000c6d565b5b602002602001015181526020018b84815181106200028f576200028e62000c6d565b5b602002602001015181526020018a8481518110620002b257620002b162000c6d565b5b60200260200101518152602001898481518110620002d557620002d462000c6d565b5b6020026020010151815250908060018154018082558091505060019003906000526020600020906005020160009091909190915060008201518160000155602082015181600101908051906020019062000331929190620004d3565b50604082015181600201908051906020019062000350929190620004d3565b5060608201518160030155608082015181600401908051906020019062000379929190620004d3565b5050508080620003899062000ccb565b915050620000e5565b50505050505050505050505062000e25565b600660009054906101000a900473ffffffffffffffffffffffffffffffffffffffff1673ffffffffffffffffffffffffffffffffffffffff163373ffffffffffffffffffffffffffffffffffffffff161462000437576040517f08c379a00000000000000000000000000000000000000000000000000000000081526004016200042e9062000d9f565b60405180910390fd5b60005b8151811015620004cf5760016009600084848151811062000460576200045f62000c6d565b5b602002602001015173ffffffffffffffffffffffffffffffffffffffff1673ffffffffffffffffffffffffffffffffffffffff16815260200190815260200160002060006101000a81548160ff0219169083151502179055508080620004c69062000ccb565b9150506200043a565b5050565b828054620004e19062000df0565b90600052602060002090601f01602090048101928262000505576000855562000551565b82601f106200052057805160ff191683800117855562000551565b8280016001018555821562000551579182015b828111156200055057825182559160200191906001019062000533565b5b50905062000560919062000564565b5090565b5b808211156200057f57600081600090555060010162000565565b5090565b6000604051905090565b600080fd5b600080fd5b600080fd5b600080fd5b6000601f19601f8301169050919050565b7f4e487b7100000000000000000000000000000000000000000000000000000000600052604160045260246000fd5b620005ec82620005a1565b810181811067ffffffffffffffff821117156200060e576200060d620005b2565b5b80604052505050565b60006200062362000583565b9050620006318282620005e1565b919050565b600067ffffffffffffffff821115620006545762000653620005b2565b5b6200065f82620005a1565b9050602081019050919050565b60005b838110156200068c5780820151818401526020810190506200066f565b838111156200069c576000848401525b50505050565b6000620006b9620006b38462000636565b62000617565b905082815260208101848484011115620006d857620006d76200059c565b5b620006e58482856200066c565b509392505050565b600082601f83011262000705576200070462000597565b5b815162000717848260208601620006a2565b91505092915050565b600067ffffffffffffffff8211156200073e576200073d620005b2565b5b602082029050602081019050919050565b600080fd5b60006200076b620007658462000720565b62000617565b905080838252602082019050602084028301858111156200079157620007906200074f565b5b835b81811015620007df57805167ffffffffffffffff811115620007ba57620007b962000597565b5b808601620007c98982620006ed565b8552602085019450505060208101905062000793565b5050509392505050565b600082601f83011262000801576200080062000597565b5b81516200081384826020860162000754565b91505092915050565b600067ffffffffffffffff8211156200083a5762000839620005b2565b5b602082029050602081019050919050565b6000819050919050565b62000860816200084b565b81146200086c57600080fd5b50565b600081519050620008808162000855565b92915050565b60006200089d62000897846200081c565b62000617565b90508083825260208201905060208402830185811115620008c357620008c26200074f565b5b835b81811015620008f05780620008db88826200086f565b845260208401935050602081019050620008c5565b5050509392505050565b600082601f83011262000912576200091162000597565b5b81516200092484826020860162000886565b91505092915050565b600073ffffffffffffffffffffffffffffffffffffffff82169050919050565b60006200095a826200092d565b9050919050565b6200096c816200094d565b81146200097857600080fd5b50565b6000815190506200098c8162000961565b92915050565b600067ffffffffffffffff821115620009b057620009af620005b2565b5b602082029050602081019050919050565b6000620009d8620009d28462000992565b62000617565b90508083825260208201905060208402830185811115620009fe57620009fd6200074f565b5b835b8181101562000a2b578062000a1688826200097b565b84526020840193505060208101905062000a00565b5050509392505050565b600082601f83011262000a4d5762000a4c62000597565b5b815162000a5f848260208601620009c1565b91505092915050565b60008060008060008060008060008060006101608c8e03121562000a915762000a906200058d565b5b60008c015167ffffffffffffffff81111562000ab25762000ab162000592565b5b62000ac08e828f01620006ed565b9b505060208c015167ffffffffffffffff81111562000ae45762000ae362000592565b5b62000af28e828f01620006ed565b9a505060408c015167ffffffffffffffff81111562000b165762000b1562000592565b5b62000b248e828f01620007e9565b99505060608c015167ffffffffffffffff81111562000b485762000b4762000592565b5b62000b568e828f01620007e9565b98505060808c015167ffffffffffffffff81111562000b7a5762000b7962000592565b5b62000b888e828f01620008fa565b97505060a08c015167ffffffffffffffff81111562000bac5762000bab62000592565b5b62000bba8e828f01620007e9565b96505060c08c015167ffffffffffffffff81111562000bde5762000bdd62000592565b5b62000bec8e828f01620006ed565b95505060e062000bff8e828f016200097b565b94505061010062000c138e828f016200086f565b93505061012062000c278e828f016200086f565b9250506101408c015167ffffffffffffffff81111562000c4c5762000c4b62000592565b5b62000c5a8e828f0162000a35565b9150509295989b509295989b9093969950565b7f4e487b7100000000000000000000000000000000000000000000000000000000600052603260045260246000fd5b7f4e487b7100000000000000000000000000000000000000000000000000000000600052601160045260246000fd5b600062000cd8826200084b565b91507fffffffffffffffffffffffffffffffffffffffffffffffffffffffffffffffff820362000d0d5762000d0c62000c9c565b5b600182019050919050565b600082825260208201905092915050565b7f566f6365206e616f2065206f20646f6e6f20646f20636f6e747261746f20706160008201527f7261207265616c697a61722065737461206163616f0000000000000000000000602082015250565b600062000d8760358362000d18565b915062000d948262000d29565b604082019050919050565b6000602082019050818103600083015262000dba8162000d78565b9050919050565b7f4e487b7100000000000000000000000000000000000000000000000000000000600052602260045260246000fd5b6000600282049050600182168062000e0957607f821691505b60208210810362000e1f5762000e1e62000dc1565b5b50919050565b6129778062000e356000396000f3fe608060405234801561001057600080fd5b50600436106101165760003560e01c80638e7ea5b2116100a2578063b315c59711610071578063b315c597146102ec578063c03df02d1461031c578063c24a0f8b14610350578063d1b581b81461036e578063e13804a71461038c57610116565b80638e7ea5b2146102625780639a0e7d6614610280578063a3ec138d1461029e578063ab112dea146102ce57610116565b80633477ee2e116100e95780633477ee2e146101a3578063456645a7146101d8578063481c6a7514610208578063716c424e146102265780637284e4161461024457610116565b80630121b93f1461011b57806306fdde03146101375780630b97bc86146101555780632d99ae6114610173575b600080fd5b61013560048036038101906101309190611dbf565b6103bc565b005b61013f61056d565b60405161014c9190611e85565b60405180910390f35b61015d6105fb565b60405161016a9190611eb6565b60405180910390f35b61018d60048036038101906101889190611f2f565b610601565b60405161019a9190611f77565b60405180910390f35b6101bd60048036038101906101b89190611dbf565b610621565b6040516101cf96959493929190611f92565b60405180910390f35b6101f260048036038101906101ed9190611dbf565b610805565b6040516101ff9190611e85565b60405180910390f35b6102106108bc565b60405161021d9190612017565b60405180910390f35b61022e6108e2565b60405161023b9190611e85565b60405180910390f35b61024c610970565b6040516102599190611e85565b60405180910390f35b61026a6109fe565b60405161027791906121e4565b60405180910390f35b610288611077565b6040516102959190611eb6565b60405180910390f35b6102b860048036038101906102b39190611f2f565b61111b565b6040516102c59190611f77565b60405180910390f35b6102d661113b565b6040516102e3919061232a565b60405180910390f35b61030660048036038101906103019190611dbf565b611586565b6040516103139190611eb6565b60405180910390f35b61033660048036038101906103319190611dbf565b6115f9565b60405161034795949392919061234c565b60405180910390f35b6103586117d7565b6040516103659190611eb6565b60405180910390f35b6103766117dd565b6040516103839190612598565b60405180910390f35b6103a660048036038101906103a19190611dbf565b611c2b565b6040516103b39190611e85565b60405180910390f35b600960003373ffffffffffffffffffffffffffffffffffffffff1673ffffffffffffffffffffffffffffffffffffffff16815260200190815260200160002060009054906101000a900460ff16610448576040517f08c379a000000000000000000000000000000000000000000000000000000000815260040161043f906125e0565b60405180910390fd5b600860003373ffffffffffffffffffffffffffffffffffffffff1673ffffffffffffffffffffffffffffffffffffffff16815260200190815260200160002060009054906101000a900460ff16156104d5576040517f08c379a00000000000000000000000000000000000000000000000000000000081526004016104cc9061264c565b60405180910390fd5b6001600482815481106104eb576104ea61266c565b5b9060005260206000209060060201600501600082825461050b91906126ca565b925050819055506001600860003373ffffffffffffffffffffffffffffffffffffffff1673ffffffffffffffffffffffffffffffffffffffff16815260200190815260200160002060006101000a81548160ff02191690831515021790555050565b6000805461057a9061274f565b80601f01602080910402602001604051908101604052809291908181526020018280546105a69061274f565b80156105f35780601f106105c8576101008083540402835291602001916105f3565b820191906000526020600020905b8154815290600101906020018083116105d657829003601f168201915b505050505081565b60025481565b60096020528060005260406000206000915054906101000a900460ff1681565b6004818154811061063157600080fd5b906000526020600020906006020160009150905080600001549080600101805461065a9061274f565b80601f01602080910402602001604051908101604052809291908181526020018280546106869061274f565b80156106d35780601f106106a8576101008083540402835291602001916106d3565b820191906000526020600020905b8154815290600101906020018083116106b657829003601f168201915b5050505050908060020180546106e89061274f565b80601f01602080910402602001604051908101604052809291908181526020018280546107149061274f565b80156107615780601f1061073657610100808354040283529160200191610761565b820191906000526020600020905b81548152906001019060200180831161074457829003601f168201915b50505050509080600301549080600401805461077c9061274f565b80601f01602080910402602001604051908101604052809291908181526020018280546107a89061274f565b80156107f55780601f106107ca576101008083540402835291602001916107f5565b820191906000526020600020905b8154815290600101906020018083116107d857829003601f168201915b5050505050908060050154905086565b60606004828154811061081b5761081a61266c565b5b906000526020600020906006020160020180546108379061274f565b80601f01602080910402602001604051908101604052809291908181526020018280546108639061274f565b80156108b05780601f10610885576101008083540402835291602001916108b0565b820191906000526020600020905b81548152906001019060200180831161089357829003601f168201915b50505050509050919050565b600660009054906101000a900473ffffffffffffffffffffffffffffffffffffffff1681565b600780546108ef9061274f565b80601f016020809104026020016040519081016040528092919081815260200182805461091b9061274f565b80156109685780601f1061093d57610100808354040283529160200191610968565b820191906000526020600020905b81548152906001019060200180831161094b57829003601f168201915b505050505081565b6001805461097d9061274f565b80601f01602080910402602001604051908101604052809291908181526020018280546109a99061274f565b80156109f65780601f106109cb576101008083540402835291602001916109f6565b820191906000526020600020905b8154815290600101906020018083116109d957829003601f168201915b505050505081565b60606003544211610a44576040517f08c379a0000000000000000000000000000000000000000000000000000000008152600401610a3b90612818565b60405180910390fd5b60008060019050610a53611ce2565b60005b600480549050811015610ccf578360048281548110610a7857610a7761266c565b5b9060005260206000209060060201600501541115610cbc5760048181548110610aa457610aa361266c565b5b906000526020600020906006020160050154935060048181548110610acc57610acb61266c565b5b90600052602060002090600602016040518060c001604052908160008201548152602001600182018054610aff9061274f565b80601f0160208091040260200160405190810160405280929190818152602001828054610b2b9061274f565b8015610b785780601f10610b4d57610100808354040283529160200191610b78565b820191906000526020600020905b815481529060010190602001808311610b5b57829003601f168201915b50505050508152602001600282018054610b919061274f565b80601f0160208091040260200160405190810160405280929190818152602001828054610bbd9061274f565b8015610c0a5780601f10610bdf57610100808354040283529160200191610c0a565b820191906000526020600020905b815481529060010190602001808311610bed57829003601f168201915b5050505050815260200160038201548152602001600482018054610c2d9061274f565b80601f0160208091040260200160405190810160405280929190818152602001828054610c599061274f565b8015610ca65780601f10610c7b57610100808354040283529160200191610ca6565b820191906000526020600020905b815481529060010190602001808311610c8957829003601f168201915b5050505050815260200160058201548152505091505b8080610cc790612838565b915050610a56565b5060005b600480549050811015610d655760048181548110610cf457610cf361266c565b5b90600052602060002090600602016005015484148015610d3d575060048181548110610d2357610d2261266c565b5b906000526020600020906006020160000154826000015114155b15610d5257600183610d4f91906126ca565b92505b8080610d5d90612838565b915050610cd3565b5060008267ffffffffffffffff811115610d8257610d81612880565b5b604051908082528060200260200182016040528015610dbb57816020015b610da8611ce2565b815260200190600190039081610da05790505b509050600183111561104c576000805b6004805490508110156110455760048181548110610dec57610deb61266c565b5b90600052602060002090600602016005015486036110325760048181548110610e1857610e1761266c565b5b90600052602060002090600602016040518060c001604052908160008201548152602001600182018054610e4b9061274f565b80601f0160208091040260200160405190810160405280929190818152602001828054610e779061274f565b8015610ec45780601f10610e9957610100808354040283529160200191610ec4565b820191906000526020600020905b815481529060010190602001808311610ea757829003601f168201915b50505050508152602001600282018054610edd9061274f565b80601f0160208091040260200160405190810160405280929190818152602001828054610f099061274f565b8015610f565780601f10610f2b57610100808354040283529160200191610f56565b820191906000526020600020905b815481529060010190602001808311610f3957829003601f168201915b5050505050815260200160038201548152602001600482018054610f799061274f565b80601f0160208091040260200160405190810160405280929190818152602001828054610fa59061274f565b8015610ff25780601f10610fc757610100808354040283529160200191610ff2565b820191906000526020600020905b815481529060010190602001808311610fd557829003601f168201915b505050505081526020016005820154815250508383815181106110185761101761266c565b5b6020026020010181905250818061102e90612838565b9250505b808061103d90612838565b915050610dcb565b505061106d565b81816000815181106110615761106061266c565b5b60200260200101819052505b8094505050505090565b600060035442116110bd576040517f08c379a00000000000000000000000000000000000000000000000000000000081526004016110b490612818565b60405180910390fd5b6000905060005b60048054905081101561111757600481815481106110e5576110e461266c565b5b9060005260206000209060060201600501548261110291906126ca565b9150808061110f90612838565b9150506110c4565b5090565b60086020528060005260406000206000915054906101000a900460ff1681565b611143611d18565b6003544211611187576040517f08c379a000000000000000000000000000000000000000000000000000000000815260040161117e90612818565b60405180910390fd5b6040518060c001604052806000805461119f9061274f565b80601f01602080910402602001604051908101604052809291908181526020018280546111cb9061274f565b80156112185780601f106111ed57610100808354040283529160200191611218565b820191906000526020600020905b8154815290600101906020018083116111fb57829003601f168201915b505050505081526020016001805461122f9061274f565b80601f016020809104026020016040519081016040528092919081815260200182805461125b9061274f565b80156112a85780601f1061127d576101008083540402835291602001916112a8565b820191906000526020600020905b81548152906001019060200180831161128b57829003601f168201915b50505050508152602001600780546112bf9061274f565b80601f01602080910402602001604051908101604052809291908181526020018280546112eb9061274f565b80156113385780601f1061130d57610100808354040283529160200191611338565b820191906000526020600020905b81548152906001019060200180831161131b57829003601f168201915b50505050508152602001600254815260200160035481526020016004805480602002602001604051908101604052809291908181526020016000905b8282101561157a57838290600052602060002090600602016040518060c0016040529081600082015481526020016001820180546113b19061274f565b80601f01602080910402602001604051908101604052809291908181526020018280546113dd9061274f565b801561142a5780601f106113ff5761010080835404028352916020019161142a565b820191906000526020600020905b81548152906001019060200180831161140d57829003601f168201915b505050505081526020016002820180546114439061274f565b80601f016020809104026020016040519081016040528092919081815260200182805461146f9061274f565b80156114bc5780601f10611491576101008083540402835291602001916114bc565b820191906000526020600020905b81548152906001019060200180831161149f57829003601f168201915b50505050508152602001600382015481526020016004820180546114df9061274f565b80601f016020809104026020016040519081016040528092919081815260200182805461150b9061274f565b80156115585780601f1061152d57610100808354040283529160200191611558565b820191906000526020600020905b81548152906001019060200180831161153b57829003601f168201915b5050505050815260200160058201548152505081526020019060010190611374565b50505050815250905090565b600060035442116115cc576040517f08c379a00000000000000000000000000000000000000000000000000000000081526004016115c390612818565b60405180910390fd5b600482815481106115e0576115df61266c565b5b9060005260206000209060060201600501549050919050565b6005818154811061160957600080fd5b90600052602060002090600502016000915090508060000154908060010180546116329061274f565b80601f016020809104026020016040519081016040528092919081815260200182805461165e9061274f565b80156116ab5780601f10611680576101008083540402835291602001916116ab565b820191906000526020600020905b81548152906001019060200180831161168e57829003601f168201915b5050505050908060020180546116c09061274f565b80601f01602080910402602001604051908101604052809291908181526020018280546116ec9061274f565b80156117395780601f1061170e57610100808354040283529160200191611739565b820191906000526020600020905b81548152906001019060200180831161171c57829003601f168201915b5050505050908060030154908060040180546117549061274f565b80601f01602080910402602001604051908101604052809291908181526020018280546117809061274f565b80156117cd5780601f106117a2576101008083540402835291602001916117cd565b820191906000526020600020905b8154815290600101906020018083116117b057829003601f168201915b5050505050905085565b60035481565b6117e5611d4e565b600254421180156117f7575060035442105b611836576040517f08c379a000000000000000000000000000000000000000000000000000000000815260040161182d90612921565b60405180910390fd5b6040518060c001604052806000805461184e9061274f565b80601f016020809104026020016040519081016040528092919081815260200182805461187a9061274f565b80156118c75780601f1061189c576101008083540402835291602001916118c7565b820191906000526020600020905b8154815290600101906020018083116118aa57829003601f168201915b50505050508152602001600180546118de9061274f565b80601f016020809104026020016040519081016040528092919081815260200182805461190a9061274f565b80156119575780601f1061192c57610100808354040283529160200191611957565b820191906000526020600020905b81548152906001019060200180831161193a57829003601f168201915b505050505081526020016007805461196e9061274f565b80601f016020809104026020016040519081016040528092919081815260200182805461199a9061274f565b80156119e75780601f106119bc576101008083540402835291602001916119e7565b820191906000526020600020905b8154815290600101906020018083116119ca57829003601f168201915b50505050508152602001600254815260200160035481526020016005805480602002602001604051908101604052809291908181526020016000905b82821015611c1f57838290600052602060002090600502016040518060a001604052908160008201548152602001600182018054611a609061274f565b80601f0160208091040260200160405190810160405280929190818152602001828054611a8c9061274f565b8015611ad95780601f10611aae57610100808354040283529160200191611ad9565b820191906000526020600020905b815481529060010190602001808311611abc57829003601f168201915b50505050508152602001600282018054611af29061274f565b80601f0160208091040260200160405190810160405280929190818152602001828054611b1e9061274f565b8015611b6b5780601f10611b4057610100808354040283529160200191611b6b565b820191906000526020600020905b815481529060010190602001808311611b4e57829003601f168201915b5050505050815260200160038201548152602001600482018054611b8e9061274f565b80601f0160208091040260200160405190810160405280929190818152602001828054611bba9061274f565b8015611c075780601f10611bdc57610100808354040283529160200191611c07565b820191906000526020600020905b815481529060010190602001808311611bea57829003601f168201915b50505050508152505081526020019060010190611a23565b50505050815250905090565b606060048281548110611c4157611c4061266c565b5b90600052602060002090600602016001018054611c5d9061274f565b80601f0160208091040260200160405190810160405280929190818152602001828054611c899061274f565b8015611cd65780601f10611cab57610100808354040283529160200191611cd6565b820191906000526020600020905b815481529060010190602001808311611cb957829003601f168201915b50505050509050919050565b6040518060c001604052806000815260200160608152602001606081526020016000815260200160608152602001600081525090565b6040518060c001604052806060815260200160608152602001606081526020016000815260200160008152602001606081525090565b6040518060c001604052806060815260200160608152602001606081526020016000815260200160008152602001606081525090565b600080fd5b6000819050919050565b611d9c81611d89565b8114611da757600080fd5b50565b600081359050611db981611d93565b92915050565b600060208284031215611dd557611dd4611d84565b5b6000611de384828501611daa565b91505092915050565b600081519050919050565b600082825260208201905092915050565b60005b83811015611e26578082015181840152602081019050611e0b565b83811115611e35576000848401525b50505050565b6000601f19601f8301169050919050565b6000611e5782611dec565b611e618185611df7565b9350611e71818560208601611e08565b611e7a81611e3b565b840191505092915050565b60006020820190508181036000830152611e9f8184611e4c565b905092915050565b611eb081611d89565b82525050565b6000602082019050611ecb6000830184611ea7565b92915050565b600073ffffffffffffffffffffffffffffffffffffffff82169050919050565b6000611efc82611ed1565b9050919050565b611f0c81611ef1565b8114611f1757600080fd5b50565b600081359050611f2981611f03565b92915050565b600060208284031215611f4557611f44611d84565b5b6000611f5384828501611f1a565b91505092915050565b60008115159050919050565b611f7181611f5c565b82525050565b6000602082019050611f8c6000830184611f68565b92915050565b600060c082019050611fa76000830189611ea7565b8181036020830152611fb98188611e4c565b90508181036040830152611fcd8187611e4c565b9050611fdc6060830186611ea7565b8181036080830152611fee8185611e4c565b9050611ffd60a0830184611ea7565b979650505050505050565b61201181611ef1565b82525050565b600060208201905061202c6000830184612008565b92915050565b600081519050919050565b600082825260208201905092915050565b6000819050602082019050919050565b61206781611d89565b82525050565b600082825260208201905092915050565b600061208982611dec565b612093818561206d565b93506120a3818560208601611e08565b6120ac81611e3b565b840191505092915050565b600060c0830160008301516120cf600086018261205e565b50602083015184820360208601526120e7828261207e565b91505060408301518482036040860152612101828261207e565b9150506060830151612116606086018261205e565b506080830151848203608086015261212e828261207e565b91505060a083015161214360a086018261205e565b508091505092915050565b600061215a83836120b7565b905092915050565b6000602082019050919050565b600061217a82612032565b612184818561203d565b9350836020820285016121968561204e565b8060005b858110156121d257848403895281516121b3858261214e565b94506121be83612162565b925060208a0199505060018101905061219a565b50829750879550505050505092915050565b600060208201905081810360008301526121fe818461216f565b905092915050565b600082825260208201905092915050565b600061222282612032565b61222c8185612206565b93508360208202850161223e8561204e565b8060005b8581101561227a578484038952815161225b858261214e565b945061226683612162565b925060208a01995050600181019050612242565b50829750879550505050505092915050565b600060c08301600083015184820360008601526122a9828261207e565b915050602083015184820360208601526122c3828261207e565b915050604083015184820360408601526122dd828261207e565b91505060608301516122f2606086018261205e565b506080830151612305608086018261205e565b5060a083015184820360a086015261231d8282612217565b9150508091505092915050565b60006020820190508181036000830152612344818461228c565b905092915050565b600060a0820190506123616000830188611ea7565b81810360208301526123738187611e4c565b905081810360408301526123878186611e4c565b90506123966060830185611ea7565b81810360808301526123a88184611e4c565b90509695505050505050565b600081519050919050565b600082825260208201905092915050565b6000819050602082019050919050565b600060a0830160008301516123f8600086018261205e565b5060208301518482036020860152612410828261207e565b9150506040830151848203604086015261242a828261207e565b915050606083015161243f606086018261205e565b5060808301518482036080860152612457828261207e565b9150508091505092915050565b600061247083836123e0565b905092915050565b6000602082019050919050565b6000612490826123b4565b61249a81856123bf565b9350836020820285016124ac856123d0565b8060005b858110156124e857848403895281516124c98582612464565b94506124d483612478565b925060208a019950506001810190506124b0565b50829750879550505050505092915050565b600060c0830160008301518482036000860152612517828261207e565b91505060208301518482036020860152612531828261207e565b9150506040830151848203604086015261254b828261207e565b9150506060830151612560606086018261205e565b506080830151612573608086018261205e565b5060a083015184820360a086015261258b8282612485565b9150508091505092915050565b600060208201905081810360008301526125b281846124fa565b905092915050565b50565b60006125ca600083611df7565b91506125d5826125ba565b600082019050919050565b600060208201905081810360008301526125f9816125bd565b9050919050565b7f566f6365206a6120766f746f7521000000000000000000000000000000000000600082015250565b6000612636600e83611df7565b915061264182612600565b602082019050919050565b6000602082019050818103600083015261266581612629565b9050919050565b7f4e487b7100000000000000000000000000000000000000000000000000000000600052603260045260246000fd5b7f4e487b7100000000000000000000000000000000000000000000000000000000600052601160045260246000fd5b60006126d582611d89565b91506126e083611d89565b9250827fffffffffffffffffffffffffffffffffffffffffffffffffffffffffffffffff038211156127155761271461269b565b5b828201905092915050565b7f4e487b7100000000000000000000000000000000000000000000000000000000600052602260045260246000fd5b6000600282049050600182168061276757607f821691505b60208210810361277a57612779612720565b5b50919050565b7f4120766f746163616f206e616f207465726d696e6f752c20616775617264652060008201527f6f207465726d696e6f2070617261207574696c697a617220657374612066756e60208201527f63616f2e00000000000000000000000000000000000000000000000000000000604082015250565b6000612802604483611df7565b915061280d82612780565b606082019050919050565b60006020820190508181036000830152612831816127f5565b9050919050565b600061284382611d89565b91507fffffffffffffffffffffffffffffffffffffffffffffffffffffffffffffffff82036128755761287461269b565b5b600182019050919050565b7f4e487b7100000000000000000000000000000000000000000000000000000000600052604160045260246000fd5b7f4120766f746163616f206e616f2065737461206f636f7272656e646f2c20636f60008201527f6e66697261206173206461746173000000000000000000000000000000000000602082015250565b600061290b602e83611df7565b9150612916826128af565b604082019050919050565b6000602082019050818103600083015261293a816128fe565b905091905056fea26469706673582212209266c7754396fd24b565fd313b7f85e1c1bb496ca1f50a2d4cb54fcb8aa0c77a64736f6c634300080e0033a2646970667358221220de76a8173f092e3943be3750444b5072b12e01042fb0939c94486b94a167ae3664736f6c634300080e0033",
  "immutableReferences": {},
  "source": "// SPDX-License-Identifier: GPL-3.0\r\n\r\npragma solidity >=0.7.0 <0.9.0;\r\npragma abicoder v2;\r\n\r\ncontract Election {\r\n    address[] public deployedBallots;\r\n    string public name;\r\n    string public description;\r\n\r\n    constructor(string memory _name, string memory _description) {\r\n        name = _name;\r\n        description = _description;\r\n    }\r\n\r\n    function startElection(\r\n        string[] memory names,\r\n        string[] memory descriptions,\r\n        string[][] memory candidates,\r\n        string[][] memory partys,\r\n        uint256[][] memory numbers,\r\n        string[][] memory images,\r\n        string[] memory districts,\r\n        uint256 startDate,\r\n        uint256 endDate,\r\n        address[][] memory _voters\r\n    ) public {\r\n        for (uint256 i = 0; i < districts.length; i++) {\r\n            Ballot newBallot = new Ballot(\r\n                names[i],\r\n                descriptions[i],\r\n                candidates[i],\r\n                partys[i],\r\n                numbers[i],\r\n                images[i],\r\n                districts[i],\r\n                msg.sender,\r\n                startDate,\r\n                endDate,\r\n                _voters[i]\r\n            );\r\n            deployedBallots.push(address(newBallot));\r\n        }\r\n    }\r\n\r\n    function getDeployedBallots() public view returns (address[] memory) {\r\n        return deployedBallots;\r\n    }\r\n}\r\n\r\ncontract Ballot {\r\n    struct Candidate {\r\n        uint256 id;\r\n        string name;\r\n        string party;\r\n        uint256 number;\r\n        string img;\r\n        uint256 voteCount;\r\n    }\r\n    struct SecretVotesCandidate {\r\n        uint256 id;\r\n        string name;\r\n        string party;\r\n        uint256 number;\r\n        string img;\r\n    }\r\n    struct BallotRunningInformations {\r\n        string name;\r\n        string description;\r\n        string votingDistrict;\r\n        uint256 startDate;\r\n        uint256 endDate;\r\n        SecretVotesCandidate[] candidates;\r\n    }\r\n    struct BallotInformations {\r\n        string name;\r\n        string description;\r\n        string votingDistrict;\r\n        uint256 startDate;\r\n        uint256 endDate;\r\n        Candidate[] candidates;\r\n    }\r\n    string public name;\r\n    string public description;\r\n    uint256 public startDate;\r\n    uint256 public endDate;\r\n    Candidate[] public candidates;\r\n    SecretVotesCandidate[] public secretVotesCandidates;\r\n    address public manager;\r\n    string public votingDistrict;\r\n    mapping(address => bool) public voters;\r\n    mapping(address => bool) public rigthToVote;\r\n\r\n    modifier restricted() {\r\n        require(\r\n            msg.sender == manager,\r\n            \"Voce nao e o dono do contrato para realizar esta acao\"\r\n        );\r\n        _;\r\n    }\r\n    modifier hasRigthToVote() {\r\n        require(rigthToVote[msg.sender], \"\");\r\n        _;\r\n    }\r\n    modifier ballotIsRunning() {\r\n        require(\r\n            block.timestamp > startDate && block.timestamp < endDate,\r\n            \"A votacao nao esta ocorrendo, confira as datas\"\r\n        );\r\n        _;\r\n    }\r\n\r\n    modifier ballotEnded() {\r\n        require(\r\n            (block.timestamp > endDate),\r\n            \"A votacao nao terminou, aguarde o termino para utilizar esta funcao.\"\r\n        );\r\n        _;\r\n    }\r\n\r\n    constructor(\r\n        string memory _name,\r\n        string memory _description,\r\n        string[] memory candidateNames,\r\n        string[] memory candidateParty,\r\n        uint256[] memory candidateNumbers,\r\n        string[] memory candidateImages,\r\n        string memory district,\r\n        address creator,\r\n        uint256 _startDate,\r\n        uint256 _endDate,\r\n        address[] memory _voters\r\n    ) {\r\n        manager = creator;\r\n        votingDistrict = district;\r\n        startDate = _startDate;\r\n        endDate = _endDate;\r\n        name = _name;\r\n        description = _description;\r\n        giveRigthToVote(_voters);\r\n        for (uint256 i = 0; i < candidateNames.length; i++) {\r\n            candidates.push(\r\n                Candidate({\r\n                    id: candidates.length,\r\n                    name: candidateNames[i],\r\n                    party: candidateParty[i],\r\n                    number: candidateNumbers[i],\r\n                    img: candidateImages[i],\r\n                    voteCount: 0\r\n                })\r\n            );\r\n            secretVotesCandidates.push(\r\n                SecretVotesCandidate({\r\n                    id: secretVotesCandidates.length,\r\n                    name: candidateNames[i],\r\n                    party: candidateParty[i],\r\n                    number: candidateNumbers[i],\r\n                    img: candidateImages[i]\r\n                })\r\n            );\r\n        }\r\n    }\r\n\r\n    function vote(uint256 index) public hasRigthToVote {\r\n        require(!voters[msg.sender],\"Voce ja votou!\");\r\n        candidates[index].voteCount += 1;\r\n        voters[msg.sender] = true;\r\n    }\r\n\r\n    function giveRigthToVote(address[] memory _addresses) private restricted {\r\n        for (uint256 i = 0; i < _addresses.length; i++) {\r\n            rigthToVote[_addresses[i]] = true;\r\n        }\r\n    }\r\n\r\n    function getCandidateName(uint256 index)\r\n        public\r\n        view\r\n        returns (string memory)\r\n    {\r\n        return candidates[index].name;\r\n    }\r\n\r\n    function getCandidateParty(uint256 index)\r\n        public\r\n        view\r\n        returns (string memory)\r\n    {\r\n        return candidates[index].party;\r\n    }\r\n\r\n    function getCandidateVoteCount(uint256 index)\r\n        public\r\n        view\r\n        ballotEnded\r\n        returns (uint256)\r\n    {\r\n        return candidates[index].voteCount;\r\n    }\r\n\r\n    function getBallotRunning()\r\n        public\r\n        view\r\n        ballotIsRunning\r\n        returns (BallotRunningInformations memory _ballot)\r\n    {\r\n        _ballot = BallotRunningInformations({\r\n            name: name,\r\n            description: description,\r\n            votingDistrict: votingDistrict,\r\n            startDate: startDate,\r\n            endDate: endDate,\r\n            candidates: secretVotesCandidates\r\n        });\r\n        return _ballot;\r\n    }\r\n\r\n    function getBallotEnded()\r\n        public\r\n        view\r\n        ballotEnded\r\n        returns (BallotInformations memory _ballot)\r\n    {\r\n        _ballot = BallotInformations({\r\n            name: name,\r\n            description: description,\r\n            votingDistrict: votingDistrict,\r\n            startDate: startDate,\r\n            endDate: endDate,\r\n            candidates: candidates\r\n        });\r\n        return _ballot;\r\n    }\r\n\r\n    function getWinner()\r\n        external\r\n        view\r\n        ballotEnded\r\n        returns (Candidate[] memory)\r\n    {\r\n        uint256 winnerVoteCount = 0;\r\n        uint256 winnerCount = 1;\r\n        Candidate memory winner;\r\n        for (uint256 i = 0; i < candidates.length; i++) {\r\n            if (candidates[i].voteCount > winnerVoteCount) {\r\n                winnerVoteCount = candidates[i].voteCount;\r\n                winner = candidates[i];\r\n            }\r\n        }\r\n        for (uint256 i = 0; i < candidates.length; i++) {\r\n            if (\r\n                winnerVoteCount == candidates[i].voteCount &&\r\n                winner.id != candidates[i].id\r\n            ) {\r\n                winnerCount += 1;\r\n            }\r\n        }\r\n        Candidate[] memory winners = new Candidate[](winnerCount);\r\n        if (winnerCount > 1) {\r\n            uint256 j = 0;\r\n            for (uint256 i = 0; i < candidates.length; i++) {\r\n                if (winnerVoteCount == candidates[i].voteCount) {\r\n                    winners[j] = candidates[i];\r\n                    j++;\r\n                }\r\n            }\r\n        } else {\r\n            winners[0] = winner;\r\n        }\r\n        return winners;\r\n    }\r\n\r\n    function getTotalVotes()\r\n        public\r\n        view\r\n        ballotEnded\r\n        returns (uint256 _totalVotes)\r\n    {\r\n        _totalVotes = 0;\r\n        for (uint256 i = 0; i < candidates.length; i++) {\r\n            _totalVotes += candidates[i].voteCount;\r\n        }\r\n    }\r\n}\r\n",
  "sourcePath": "C:\\Users\\Luis\\Desktop\\Desktop\\Faculdade\\TCC\\app\\voteseguro\\contracts\\Election.sol",
  "compiler": {
    "name": "solc",
    "version": "0.8.14+commit.80d49f37.Emscripten.clang"
  },
  "schemaVersion": "3.4.7",
  "updatedAt": "2022-06-14T13:50:01.770Z",
  "networkType": "ethereum",
  "devdoc": {
    "kind": "dev",
    "methods": {},
    "version": 1
  },
  "userdoc": {
    "kind": "user",
    "methods": {},
    "version": 1
  }
}